:020000040000FA
:10000000202D0020950300009D0300009F030000A9
:10001000A1030000A3030000A503000000000000EE
:10002000000000000000000000000000A703000026
:10003000A903000000000000AB030000AD030000B6
:10004000AF030000AF030000250D00009909000078
:10005000A9090000AF03000029070000F107000014
:10006000AF030000D50C0000E90C0000AF03000056
:10007000AF030000AF030000AF030000AF030000B8
:10008000AF030000E1070000AF030000AF03000072
:10009000AF030000AF030000AF030000AF03000098
:1000A000AF030000AF030000FD0C0000110D0000C5
:1000B000AF030000AF0300000000000000000000DC
:1000C000AF030000AF030000AF030000AF03000068
:1000D000AF030000AF030000AF030000000000000A
:1000E0000000000000000000000000000000000010
:1000F0000000000000000000000000000000000000
:1001000000000000000000000000000000000000EF
:1001100000000000000000000000000000000000DF
:1001200000000000000000000000000000000000CF
:1001300000000000000000000000000000000000BF
:1001400000000000000000000000000000000000AF
:10015000000000000000000000000000000000009F
:10016000000000000000000000000000000000008F
:10017000000000000000000000000000000000007F
:10018000000000000000000000000000000000006F
:10019000000000000000000000000000000000005F
:1001A000000000000000000000000000000000004F
:1001B000000000000000000000000000000000003F
:1001C000000000000000000000000000000000002F
:1001D000000000000000000000000000000000001F
:1001E000000000000000000000000000000000000F
:1001F00000000000000000000000000000000000FF
:1002000000F002F800F045F80AA090E8000C8244E3
:100210008344AAF10107DA4501D100F03AF8AFF2C0
:10022000090EBAE80F0013F0010F18BFFB1A43F0D4
:1002300001031847F043000010440000103A24BFA7
:1002400078C878C1FAD8520724BF30C830C144BF3B
:1002500004680C607047000000230024002500267D
:10026000103A28BF78C1FBD8520728BF30C148BF19
:100270000B6070471FB504F0C3F800F0ABF9040041
:100280000020002104F0A6F8401C60601FBD10B5DE
:1002900010BD00F0E7F91146FFF7ECFF01F0CAFAD4
:1002A00000F005FA03B4FFF7F2FF03BC00F008FA10
:1002B00030B4044654E8000F0D4644E80053002BC8
:1002C000F8D1156030BC704730B4044654E8000FD4
:1002D00040EA010544E80053002BF7D1156030BC1B
:1002E000704730B4044654E8000F00EA010544E8C2
:1002F0000053002BF7D1156030BC704730B4044672
:1003000054E8000F80EA010544E80053002BF7D1C0
:10031000156030BC704730B4044654E8000F00EB61
:10032000010544E80053002BF7D1156030BC70473D
:1003300030B4044654E8000FA0EB010544E8005334
:10034000002BF7D1156030BC704770B404464FF0F5
:10035000000054E8006F0D68AE4207BF44E8002378
:10036000012044E800630E60002B1CBF0020F0E772
:1003700070BC704730B4044654E8000F88422CBF6C
:10038000451A054644E80053002BF5D1156030BCF2
:10039000704700000948804709480047FEE7FEE72C
:1003A000FEE7FEE7FEE7FEE7FEE7FEE7FEE7FEE725
:1003B00004480549054A064B70470000FD09000046
:1003C00001020000200D0020202D0020201D002013
:1003D000201D002010B500F0FDF8001D10BD00BF6D
:1003E000F53F0000B2F120030AD5C2F1200320FA44
:1003F00002F001FA03F321FA02F140EA0300704728
:1004000021FA03F04FF00001704740EA0103024671
:1004100030B59B0710D14FF0013400E008C208C985
:100420001D1B9D4315EAC41FF8D013F0FF0102F80D
:10043000011B0DD01B0AF8E711F8013B002B02F855
:10044000013B05D011F8013B002B02F8013BF3D131
:1004500030BD10B5431C02E010F8011B71B18107DB
:10046000FAD14FF0013202C88C1A8C4314EAC2113F
:10047000F9D0C01A0A0603D0C01E10BDC01A10BDA4
:100480000A0401D0801E10BD0902FCD0401E10BD20
:10049000032A40F2308010F0030C00F0158011F8B0
:1004A000013BBCF1020F624498BF11F801CB00F888
:1004B000013B38BF11F8013BA2F1040298BF00F8DC
:1004C00001CB38BF00F8013B11F0030300F0258099
:1004D000083AC0F0088051F8043B083A51F804CBC0
:1004E000A0E80810F5E7121D5CBF51F8043B40F886
:1004F000043BAFF30080D20724BF11F8013B11F891
:1005000001CB48BF11F8012B24BF00F8013B00F8D4
:1005100001CB48BF00F8012B704710B5203AC0F05E
:100520000B80B1E81850203AA0E81850B1E81850F4
:10053000A0E81850BFF4F5AF5FEA027C24BFB1E831
:100540001850A0E8185044BF18C918C0BDE81040A2
:100550005FEA827C24BF51F8043B40F8043B08BFAB
:100560007047D20728BF31F8023B48BF11F8012B72
:1005700028BF20F8023B48BF00F8012B70474FF01E
:10058000000200B5134694469646203922BFA0E8E3
:100590000C50A0E80C50B1F12001BFF4F7AF0907EF
:1005A00028BFA0E80C5048BF0CC05DF804EB8900E0
:1005B00028BF40F8042B08BF704748BF20F8022B23
:1005C00011F0804F18BF00F8012B7047704770473B
:1005D0007047000000487047E00C0020004870475A
:1005E000C00C00204FF0013C50F8042B51F8043BA4
:1005F0009A4221D1A2EB0C03934313EACC1317D1F7
:1006000050F8042B51F8043B9A4215D1A2EB0C038D
:10061000934313EACC130BD150F8042B51F8043B4D
:100620009A4209D1A2EB0C03934313EACC13DBD01B
:100630004FF00000704700BFD01A01BAB1FA81F143
:1006400001F0180122FA01F0CB40C1F12001DBB228
:10065000C0B2C01A2CFA01F3D11A914311EAC311A6
:10066000E6D170477546FFF7B9FFAE46050069460B
:10067000534620F00700854618B020B5FFF798FED6
:10068000BDE820404FF000064FF000074FF0000893
:100690004FF0000B21F00701AC46ACE8C009ACE814
:1006A000C009ACE8C009ACE8C0098D46704710B578
:1006B0000446AFF300802046BDE81040FFF7F2BDCE
:1006C00001491820ABBEFEE726000200704700007B
:1006D00008B502F0E1FF00F0CFFD0C490D4AB1F979
:1006E000040000900A48B1F90230801AC0080322C1
:1006F00002EB0040B1F9002007A101F0FBFD00BFB3
:1007000001F0DCFC0028FBD108BD0000C400002083
:10071000CC47000064470000583A256420593A2528
:1007200064205A3A256400002DE9F8430025DFF8DB
:1007300094804FF4807601242F460095304601F0D6
:10074000EFFB38B1D8F80403204203D0304601F063
:10075000DDFB2543361D64007F1CB6B2082FEDD3A8
:100760004FF4BE74204601F0DBFB48B1204601F097
:10077000CDFB45F000456A460121002001F07AFBDF
:1007800015F0FF0F16D0012600242E420ED008EBE4
:100790008401D1F81005D1F81015C0F304200A4ADD
:1007A000C1F3014152F8242002B190477600641C45
:1007B000082CEAD3002D02DA684602F04FFEBDE8AD
:1007C000F883000000600040F0000020007800285E
:1007D00002D102490120087070470000D0000020BB
:1007E00002490248091F0968006808475C000020A8
:1007F0002DE9FE434FF48278404601F035FF4C4F1F
:1008000000254C4C012600B3404601F035FF94F81A
:100810002E0010B194F82F10D1B18DF800506168FE
:1008200001912189ADF80810E26832B1218B618312
:1008300062602181E56010B102E0257400E03E6055
:1008400021686846884784F82F5094F82E0060B3DA
:100850004FF48077384601F007FF30B3384601F097
:100860000BFF628B94F82D108A420AD9A2EB01008B
:1008700080B260832289A2EB0000626802EB400034
:1008800005E007D1E06828B184F82F60658301F0A6
:10089000D9FE04E08A4202D184F82F606583404685
:1008A00001F0EAFE2248001D06604FF488773846C2
:1008B00001F0DAFE48B1384601F0DEFE2574022070
:1008C0008DF800002168684688474FF48A773846DB
:1008D00001F0CAFE28B1384601F0CEFE2574BDE80D
:1008E000FE834FF000484FF48C7967691DE000BF2C
:1008F000B7FA87F028FA00F109EB80058F43284604
:1009000001F0B2FE88B1284601F0B6FEA5F58C755F
:10091000E8088DF8040045F38000401C8DF8006065
:100920008DF80500216868468847002FE0D1D6E79A
:10093000007000400002002000F0FAB970B50E46C9
:10094000144900EB400001EBC0051446E86A183575
:1009500020B101280FD0022805D113E0284600F06D
:100960001BFAA04201D2002411E02246314628465B
:1009700000F057FA0BE0284600F00EFAA042F4D23D
:100980000446F2E73146284600F01EFA04462046A7
:1009900070BD0000380800200149024803F04AB841
:1009A0007C01002000300040F8B54FF040200446A4
:1009B000114E4FF48C7101F080FE00281AD00025F2
:1009C000C4F81851D4F818010090F07F3446FF287D
:1009D00006D0A17F11B101F063FA01E001F08EFAB7
:1009E00065772572D4E9002101B004F10800BDE863
:1009F000F0401047F8BD000030020020F0B5A449D7
:100A0000A4484FF080540B68D4F830210078D4F813
:100A10003411551CC0F3031006D09446012700265C
:100A2000BCF1060F03D00AE003F0FF0CF6E7B4F8C0
:100A30002453DFF864C2C5F30425CCF80050DDB2BE
:100A4000062D06D1032804D1DFF854C2934DCCF80B
:100A50007450551C04D09446BCF1060F03D00AE034
:100A600003F0FF0CF8E7D4F84452DFF838C2C5F3BE
:100A70004235CCF80050DDB2062D08D1032806D14E
:100A8000894DD5F800C02CF0807CC5F800C0551CFD
:100A900004D09446BCF1060F03D00BE003F0FF0C2A
:100AA000F8E74FF08045C5F80C61C5F810617D4D41
:100AB0002D1F2E60DDB2062D08D1032806D1DFF8E8
:100AC000E4C103250CF1640CCCF80050DDB2062D16
:100AD00010D103280ED1DFF8D4C10525CCF8005081
:100AE000724D78352F60714D08352E600CF104067B
:100AF0003F253560551C04D016460D46062E03D002
:100B00005BE0DEB20546F9E7ED1E012D55D9684DD3
:100B10002D68684E3560664D2D1D2D68361D35607B
:100B2000634D08352D68361D3560614D0C352D68D7
:100B3000361D35605E4D10352D68361D35605C4DB7
:100B400014352D68361D3560594D18352D68594EB0
:100B500020363560564D1C352D68361D3560544D98
:100B600020352D68361D3560514D24352D68361DD4
:100B700035604F4D28352D68361D35604C4D2C3570
:100B80002D68361D35604A4D30352D68494E40364A
:100B90003560474D34352D68361D3560444D383548
:100BA0002D68361D3560424D3C352D68361D35604B
:100BB0003F4D40352D68361D3560551C03D0164617
:100BC000062E02D007E0DEB2FAE7D4F858523A4EC9
:100BD00005F04F053560551C03D01346062B02D097
:100BE00008E0DBB2FAE735480368DB0702D06FF0B4
:100BF00001030360062A07D1C91E022904D930481F
:100C0000016841F48061016027487438016841F44B
:100C100070010160BFF34F8FBFF36F8FD4E94C10A9
:100C20004FF01022062907D1C01E032804D9D2F89C
:100C300008021C491C310860D2F80002002803DBBE
:100C4000D2F8040200281FDA012002F0D5FB15219A
:100C5000C2F800121B480368002BFCD0C2F8041233
:100C600001680029FCD0002002F0C6FBBFF34F8FC3
:100C70000D48F0380168144A01F4E0611143016045
:100C8000BFF34F8F00BFFDE7114910480860F0BD6A
:100C9000E00F00F0E80F00F0403501400DF0ADBA74
:100CA00000C007403C050040FCED00E0105600404D
:100CB0000404001020C50040E40E00400004004081
:100CC0003C17004000E401400400FA050090D00306
:100CD000EC00002004220249024800F01BBD000085
:100CE0004C0100200090004004220249024800F01C
:100CF00011BD00005801002000A00040062202495A
:100D0000024800F007BD00006401002000A001407F
:100D100006220249024800F0FDBC000070010020DC
:100D200000B0014001480068004700002800002092
:100D300010B5124C02202061606111A0A06104F185
:100D40007800E0614FF4007020620020A0626062D1
:100D50000BA1A164E06204F51E71E1641021A0659D
:100D6000C4E91410E06509A1E01DFFF74EFB08A1DE
:100D70002046FFF74AFB2020A07110BD3808002054
:100D80005465726D696E616C00000000525454002D
:100D900053454747455200000269C1688A4203D85B
:100DA0008068401A104400E0501A401E7047002826
:100DB00009DB00F01F02012191404009800000F191
:100DC000E020C0F8801270472DE9F047C46817464C
:100DD000894606464FF000083069A04201D9051B3C
:100DE00002E0B168201A0D1AB0686D1E001BA842FF
:100DF00000D80546BD4200D33D4670682A462044CF
:100E00004946FFF745FBB0687F1B2C44A844A94422
:100E1000A04200D10024F460002FDDD14046BDE89F
:100E2000F0872DE9F04104468846D4E90207C51B46
:100E3000E168606816460844B54206D94146FFF7A6
:100E400027FBB819E060BDE8F0812A464146FFF76C
:100E50001FFB761B08EB050132466068FFF718FBA5
:100E6000E660F0E710B572B601F0D2FA01F026F9AB
:100E70000028FBD111481249401AC408012000EB98
:100E8000044010A101F032FA11480068C00700D0F8
:100E900000BE022000EB04400EA101F027FABFF3D0
:100EA0004F8F0B48E43801680E4A01F4E0611143AA
:100EB0000160BFF34F8F00BFFDE70000CC4700008B
:100EC00064470000466174616C206572726F720045
:100ED000F0ED00E053797374656D2072657365748D
:100EE000000000000400FA050EB500210091CDE9D4
:100EF00001106A4644F20100FFF7B4FF0EBD10B5C1
:100F00008268C368934203D000F0E6F9002010BD68
:100F1000052010BD29B112B1531E134203D0092080
:100F200070470E2070470160838000218160C1609E
:100F30000846704710B58268C3689A1A83889A4237
:100F400003D800F0D3F9002010BD042010BD00002C
:100F5000F0B5244E89B01F460D00044672603FD0A4
:100F6000A888296882B22048FFF7D4FF002835D12D
:100F7000A889A96882B21C481030FFF7CBFF00286F
:100F80002CD1202219496846FFF7C7FA60690690FC
:100F9000207C00B101208DF814008DF81C70607C5D
:100FA00000B10E208DF81500E0680290A068039053
:100FB00020680190606800900A480D4A6946083030
:100FC00000F064FD002809D1B0702068401C05D0F5
:100FD00004490122491CC81D00F08CFD09B0F0BD78
:100FE0000720FBE73C000020600200207C4400005A
:100FF000C93E000000F002B800F008B872B602481E
:101000000168491C016070473000002003490868EE
:10101000401E086000D162B670470000300000201A
:101020002DE9F041064608680C46411C4FF0A047E8
:101030004FF0010506D005FA00F1C7F80815206841
:1010400000F0F3FE6068411C02D0002100F0D2FEE7
:101050003168A069C1F82405607D217D32680843AC
:10106000C2F86C05D4E900123068C0F80C15C0F85D
:101070001425207D012815D1A068411C02D0002133
:1010800000F0B8FEE068411C05D08540C7F808555F
:10109000E06800F0CAFED4E902123068C0F8082502
:1010A000C0F81015BDE8F0812DE9F041064608684A
:1010B0000C46411C4FF0A0474FF0010506D005FA41
:1010C00000F1C7F80815206800F0B9FE6068411CFF
:1010D00002D0002100F097FE3168A069C1F8240514
:1010E000607D227D31681043C1F86C05D4E900129F
:1010F0003068C0F81425C0F80C15207D012815D1E2
:10110000A068411C02D0002100F07DFEE068411C77
:1011100005D08540C7F80855E06800F090FED4E996
:1011200002123068C0F80825C0F81015BDE8F0813B
:101130002DE9F0470546861C91460F464FF0010AFF
:101140000020FFF757FF1B4C04F21C486068386012
:10115000D4E90101184F401A3968081A0EE001213C
:10116000404600F0E3FB00F013FB0146404600F070
:10117000DDFBD4E90101401A3968081A401C864297
:10118000EDD8B9F1000F03D0052065F3891002E016
:10119000062065F39F5061683A68114004EB8101B5
:1011A000C8606068304460600020FFF725FF50464B
:1011B000BDE8F087180400207000002070B50D46CF
:1011C00004460A2902D10D21FFF7F8FFA068226822
:1011D000411CA1601554D4E90101814204D3204689
:1011E000BDE8704000F0B3BC70BD000004488168E9
:1011F0004068814201D10120704700207047000003
:101200001804002005494FF0FF32082841F820203B
:1012100002D3084480F8482070470000F000002006
:10122000F0B54FF0FF3512B10023082601E0082386
:101230000C260C4C05E000BF54F823707F1C04D032
:101240005B1CB342F8D32846F0BD26185DB286F881
:10125000305044F82310002AF5D1E11881F84800F5
:10126000F1E70000F00000200249084490F9300046
:1012700070470000F000002010B50E4A4FF40064E3
:10128000901FB2F900100180B2F902304380B2F928
:1012900004208280A14202DBA1F580510180A3429B
:1012A00002DBA3F580534380A24202DBA2F5805209
:1012B000828010BDCA0000200149002008707047DC
:1012C000E800002010B50021024800F03AFB80F34E
:1012D000100010BD34080020826883881A4003681B
:1012E0009A5C0A708168491C81607047C268838873
:1012F0001A4003689954C168491CC16070470000D6
:1013000010B501F063F901F075F902490120086098
:1013100010BD0000780500400149012008707047A9
:10132000E8000020704700000EB50F4A07CA8DE89C
:1013300007000D480D49143801F028FC08B1FFF7EB
:10134000D3FD6946002001F0CBFB08B1FFF7CCFDCF
:101350000121074801F072FB08B1FFF7C5FD02F05B
:10136000F9F902F0E9F90EBD1445000079360000E4
:10137000E600002010B502F08FFA022000F046FBD4
:1013800002F05AFAC82001F0D3F902F061FAC8203D
:1013900001F0CEF902F074FAC82001F0C9F902F0A8
:1013A00063FA022000F032FBBDE8104002F022B9DF
:1013B00010B5112000F070F8122000F06DF8002137
:1013C0000C2000F029FD00210D2000F025FDBDE8D6
:1013D0001040192000F060B81FB5094B0FCB8DE805
:1013E0000F000023074A6946074800F027FB08B1B1
:1013F000FFF77AFD0448001D01F0C2FC1FBD00008C
:10140000D8440000CD070000D40000202DE9F041B1
:10141000FFF7CEFF00F0A8F800F074F8FFF7DCFF4C
:10142000FFF782FF00F02EF80C4E14254FF47A4798
:10143000741C3846A0476D1EFAD109480949401A64
:10144000C008032101EB004007A100F04FFF00BFDF
:1014500000F034FE0028FBD1BDE8F081104400000C
:10146000CC47000064470000696E6974506572697A
:1014700070686572616C7320436F6D706C65746524
:101480006400000010B501F011FA08B1FFF72CFD5F
:10149000BDE8104000F01EB810B50446012100F070
:1014A00006FD4FF0A0410120A040C1F8080510BD85
:1014B0002DE9F041064E0A254FF47A47741C384650
:1014C000A0476D1EFAD1BDE8F0410020FFF7E4BF50
:1014D0002045000008B50948094A6946406800905F
:1014E00003208DF801000C2001F07AF908B1FFF714
:1014F000FBFC01210C2001F023F908BD2845000068
:101500001913000010B54FF48041002000F054FF83
:1015100008B1FFF7E9FCBDE8104000F0C1BD0000D4
:1015200010B5FFF727FF08480849401AC0080321F3
:1015300001EB004006A100F0D9FE00BF00F0BEFDA7
:101540000028FBD110BD0000CC470000644700001C
:10155000696E697453656E736F727320436F6D703B
:101560006C6574656400000000B58BB018220C49EE
:101570006846FEF7D2FF0B4806900B494FF4807087
:10158000CDE9070109900723084A06A96846FFF735
:10159000DFFC002801D0FFF7A7FC0BB000BD000066
:1015A000E8440000C00A0020C00B0020B53E000047
:1015B0002DE9FC5F0E008346DDE90C47C6F1000013
:1015C00098469246814600D40846012503E000BFB4
:1015D00090FBFAF06D1C5045FADAA84500D9454653
:1015E00024B1002E01DB780700D5641EB80702D5B0
:1015F000B8F1000F0AD0F80708D13CB1A54205D2D6
:1016000020215846641EFFF7D9FDF6E7002E02DAC6
:101610004E462D2102E0780703D52B215846FFF7CF
:10162000CDFD07F0030002280BD1B8F1000F08D15F
:101630003CB1A54205D230215846641EFFF7BEFDDD
:10164000F6E7CDE90047434652463146584602F098
:10165000DDFDBDE8FC9F000070B50D460446006846
:101660004FF4887101F055F84FF49071206801F043
:1016700050F84FF49271206801F04BF84FF4A271CA
:10168000206801F046F84FF4AC71206801F041F891
:1016900020681249C0F804132068690740F3073036
:1016A000090E002804DB00F1E02080F8001405E0BA
:1016B00000F00F0000F1E02080F8141D206840F3D6
:1016C0000730002809DB00F01F020121914040098A
:1016D000800000F1E020C0F8001170BD100342004E
:1016E000024600201268530713D502F003000128B8
:1016F00002D002280CD105E0C2F383100B68801CD5
:10170000184404E00223086803EB92521044086076
:10171000012070472DE9F04117468846064600240F
:1017200017E000BF4FF4A07000EB84054FF4803049
:101730007159A04059B1D6F80413014207D0294687
:10174000304600F0BFFFD8E9002128469047641CCE
:10175000E4B2BC42E6D3BDE8F08100000148007865
:1017600070470000E80000200121814003484068E4
:10177000014201D001207047002070470400002082
:1017800001218140080300D001207047704700000C
:101790002DE9FF410026244800F0C5F82248001F2B
:1017A000074600F0C0F8214C2149A06800900D6860
:1017B00000E000986946284004EB80000C30FFF7F9
:1017C0008FFF0028F5D101AA009901EA050304EB77
:1017D0008303491CDB6842F82030401C009102283A
:1017E000F2D3019800F0030001280BD0022810D199
:1017F0000198032101EB90500099BDF80A6001EBBC
:10180000900005E00198BDF80A60C0F38310084419
:101810000090384600F084F808B10098A06004B049
:101820003046BDE8F0810000300800201804002098
:1018300070000020FFF73CFEFFF7E8FDFFF770FEA9
:10184000FFF75EFD4FF0A0444FF00076FFF786FFF4
:101850000028FBD0FEF73CFFD4F8040526EA00057B
:10186000C4F8085500F00070C4F80C05FFF724FD1B
:10187000ECE72DE9F047C5881E1DB6FBF5F7894654
:10188000B6FBF5F1044605FB176C40791668684312
:10189000DDF820A0F718001F874200D9C61A16608D
:1018A00001E02468491E0029FBD1A5EB0C078846FE
:1018B000B74216D818E004EB0C00001D09EB080332
:1018C000BAF1000F3A4602D00146184600E0194628
:1018D000FEF7DEFD2468F61B4FF0000CB844B5425D
:1018E00001D9374600E02F46002EE4D1BDE8F0874D
:1018F00030B5024651B100F073FD0021074C08E0FD
:1019000034F821301568AB4202D11160002030BD9F
:10191000491C8142F4D3052030BD000000000000C6
:10192000002100F009B8012100F010B808B56A469E
:10193000FEF7F1FC009808BD08B56A46FEF7D1FC39
:1019400008BD08B56A46FEF7B3FC08BD08B56A468F
:10195000FEF7BAFC009808BD08B56A46FEF7E8FC39
:10196000009808BD70B5044600252846FFF742FBE5
:1019700021686268086890420ED9401E08600178AC
:10198000238AE26801FB0325227A2168101AC0B27B
:101990000A79824200D208710020FFF72DFB284609
:1019A00070BD70B505460C460020FFF723FBE868C4
:1019B000298A201AB0FBF1F12A681068431C1360D1
:1019C0000170BDE870400020FFF716BB10B530B1C4
:1019D000017A42680368891AC9B21A6006E00E20CB
:1019E00010BD03681A68541C1C601170491EC9B2EE
:1019F000F7D2006800210171084610BDC20800F04E
:101A000007030120895C98400840704770B50400C6
:101A100006D04FF47A75284600F08AFE641EFAD18B
:101A200070BD00000448017809B18520704701218C
:101A30000170002070470000000000202DE9F041F7
:101A4000064604780B4815460F4640F82420083017
:101A500040F82430487B10B1084601F075FF0DB105
:101A6000054A00E0002223463946301DBDE8F0411A
:101A700001F098B90C000020F539000038B5001DC0
:101A8000049C009401F018FA38BD0000F0B505463A
:101A90000478154889B0164640F82420124A08698F
:101AA000121DA2F1080742F82400487F3855202271
:101AB0006846FEF732FD04942878385C48B10EB1D0
:101AC0000A4A00E000226946281D01F079FB09B0AE
:101AD000F0BD0EB1064A00E00022694605F10C0097
:101AE00001F022FAF3E7000020000020C9400000C6
:101AF0006D3F000030B40378054CE35C1BB130BC93
:101B0000001D01F093BB30BC0C3001F077BA00002F
:101B10001C00002030B40378054CE35C1BB130BCE2
:101B2000001D01F005BC30BC0C3001F0DDBA000036
:101B30001C0000200FB408B50399002904D004AAA2
:101B400000926A4600F00FF801B05DF814FB10B582
:101B500082680446002A05D0D4E904032168984726
:101B60000020A06010BD2DE9FC4791460C00804686
:101B700076D014F8011B39B125290ED04046FFF765
:101B80001DFB20780028F4D198F80C00002867D0BD
:101B90004046BDE8FC47FFF7DABF0020012221786C
:101BA0002B291BD02D2902D0302908D102E040F08A
:101BB000010001E040F00200641C002AEFD1002582
:101BC0002A290ED02178A1F130020A2A11D205EB80
:101BD000850201EB4205641C303DF1E740F0040052
:101BE000EAE7D9F800100B1DC9F800300968641C39
:101BF0000D44217800232E290BD114F8011FA1F1E7
:101C000030020A2A05D203EB830201EB4203303B88
:101C1000F3E76C290DD068290BD0692921D00BDCA2
:101C2000252918D0582931D063290ED0642915D11F
:101C300017E014F8011FECE7702969D0732932D03E
:101C400075291BD0782909D120E0D9F80000011DA1
:101C5000C9F8001001784046FFF7B0FA641C90E71D
:101C60006CE0D9F800100A1DC9F800200968CDE918
:101C700000500A224046FFF79BFCEFE7D9F800101E
:101C80000A1DC9F8002009680A2206E0D9F80010E8
:101C90000A1DC9F8002009681022CDE9005040460D
:101CA00002F0B4FADAE7D9F8001000270A1DC9F8E3
:101CB00000200E68C00705D112E04046761C7F1C4C
:101CC000FFF77CFA31780029F7D104E02021404663
:101CD0006D1EFFF773FABD42C0D9002DF6D1BDE7E6
:101CE0004EB13046FEF7B5FB074604E020214046E2
:101CF0006D1EFFF763FABD4206D9002DF6D103E051
:101D00004046761CFFF75AFA31780029F8D1A5E74A
:101D1000D9F80000011DC9F80010056830214046BF
:101D2000FFF74CFA78214046FFF748FA08200021D7
:101D3000CDE90001034610222946B0E7BDE8FC8743
:101D400070B541EA4201DDE904564FF0A04441EA92
:101D5000830141EA052104EB800041EA0641C0F815
:101D6000001770BD70B541EA4201DDE904564FF03D
:101D7000A04441EA830141EA052104EB800041EAE5
:101D80000641C0F8001770BD70B541EA4201DDE9B7
:101D900004564FF0A04441EA830141EA052104EBD7
:101DA000800041EA0641C0F8001770BD70B541EAF5
:101DB0004201DDE904564FF0A04441EA830141EAC3
:101DC000052104EB800041EA0641C0F8001770BD10
:101DD00070B541EA4201DDE904564FF0A04441EA02
:101DE000830141EA052104EB800041EA0641C0F885
:101DF000001770BD1CB500220B46009211460192DF
:101E0000FFF7C2FF1CBD1CB500220B460092114615
:101E10000192FFF7CBFF1CBD1CB500220B460092C0
:101E200011460192FFF7D4FF1CBD1CB500210091A3
:101E30000B46012201911146FFF7A6FF1CBD1CB500
:101E4000002100910B46012201911146FFF7AEFFE0
:101E50001CBD4FF0A04202EB8000D0F8002722F416
:101E60004032C0F80027D0F8002742EA0141C0F80C
:101E70000017704738B5094B44181B6800936B4630
:101E800008E000BF53F82010D1F8205520C2C1F857
:101E90002055401C8442F5D838BD0000184400008D
:101EA0004FF0A04201218140C2F80C1570471CB5CB
:101EB00031B14FF0A04101228240C1F818251CBD6C
:101EC000002100910B460A460191FFF781FF1CBDDE
:101ED00042094FF0000100D1491E00F01F0001220D
:101EE00082400A4201D001207047002070474FF025
:101EF000A04201218140C2F8081570474FF0A0426E
:101F000001218140C2F8081570470000034908B557
:101F10000844002101600068009008BD0060004096
:101F200002494058012800D000207047006000405E
:101F300030B5154A01460020D2F8104423460AE085
:101F4000DB681D79854205D1401C0A28F6DB4FF07D
:101F5000FF3030BD1B68002BF2D1431CF9D0CB6899
:101F60001871D2F8103443B1DB68CC681B68236069
:101F7000D2F81024D268116030BDC2F81014C968BC
:101F800000220A6030BD0000180400207047FEF7F0
:101F9000D3BC704708B5034A00924023024A00F0C0
:101FA00005F808BDE937000080020020F0B595B0C3
:101FB0001C4615460E4608461A9F00F0E1FA182105
:101FC00009A8FEF7DCFA0E97CDE909540023082290
:101FD00003A9304600F0E9FA05980690BDF8100014
:101FE000ADF81C00BDF81200ADF81E0000208DF801
:101FF00021000399082501F00300012802D00228DE
:1020000016D02FE0C1F3C200C1F383178C0A8DF8FC
:102010002000BA002B460FA9304600F0C6FA09A8E6
:10202000009006AB3A460FA9204600F005FA19E0E9
:10203000C1F3C2008C0D8DF82000082C01D2274678
:1020400000E008272B463A460FA9304600F0ADFACB
:102050003D44E41B09AB06AA39460FA800F054F929
:10206000002CEAD1304600F091FA15B0F0BD000026
:102070000A4A012902EBC00007D0022907D0032930
:1020800007D0042907D000207047022070470420A1
:10209000704700797047407970470000644700003E
:1020A00010B5FFF774FF04210348FFF741FF024911
:1020B0000120C968487110BD544700002DE9FF4751
:1020C000FFF794F818B1002004B0BDE8F0877D4C0C
:1020D0000020C4F81804BFF34F8F7B49A06800901C
:1020E0000D684FF00008284004EB80000CE000BFB2
:1020F000D4F8180470B961680098814201D8A160D1
:10210000E1E7284004EB80000C306946FFF7E8FA6D
:102110000028EDD1002001AA009901EA050304EB93
:102120008303491CDB6842F82030401C00910228E0
:10213000F2D3019800F00301022902D001294DD009
:10214000A5E0810D50228946B2EB905F00D8502166
:102150000E4666F39F50019008315C4800F0C7F9C5
:10216000070077D000F00CFA4346082201A9384650
:1021700000F023FA009908F1080A2940681A800043
:10218000001D864223D94F4D0C3530B1C2B204EB4D
:102190008101301A90460C3104E02946F2B2002544
:1021A00090462846C6B25346384600F006FA0AEB77
:1021B00008032DB1324629464FEA070000F0FDF929
:1021C000009909F1030001EB9000009039E004EB65
:1021D00081015346324638460C31EFE7C0F3831194
:1021E000062900D3062161F389100190C0F3831002
:1021F000801C8100354800F07AF9070047D000F0D4
:10220000BFF94346082201A9384600F0D6F908F183
:10221000080800260FE00098434600EA0501401C2C
:1022200004EB81010090042238460C3100F0C5F91E
:1022300008F10408761C0198C0F38310B042EAD874
:1022400047B1D4F81054D4F8180478B1384600F0E7
:102250009DF931E01BE0E8684079012804D12A6843
:102260002846394612689047E8680568002DF2D183
:10227000384600F08BF90020FEF7BCFED4F81804B5
:1022800008B90098A0600020FEF7B6FE14E0D4F86C
:10229000104405E02168204689688847E0680468A2
:1022A000002CF7D10A480B49401AC008022101EB63
:1022B000004009A100F01AF8FEF798FF80F0010035
:1022C00002E700001804002070000020D44700003E
:1022D000CC470000644700004261636B656E647325
:1022E00020666C75736865640000000000231A4660
:1022F00001F0DEBA3EB5069C8DE81C0003236A4659
:1023000001F0D6FA3EBD00002DE9F0470E468046AA
:102310001C469246082940D894F80C90002020735F
:102320001946104601F01AF90025B54206D218F8F0
:1023300005201BA12046FFF7FDFB03E01AA1204664
:10234000FFF7F8FB6D1C082DEFD318A12046FFF70F
:10235000F1FB0025B54212D218F805707E2F08D87F
:10236000FEF738F80068C05D10F03E0F01D03A4625
:1023700000E02E220EA12046FFF7DCFB03E00DA1BA
:102380002046FFF7D7FB6D1C082DE3D30122214621
:10239000504601F0C5F884F80C90BDE8F0870000C5
:1023A0002025303278000000202020007C00000032
:1023B0002563000020000000064910B500200870C9
:1023C000054800F0E1F8002803D1044800F02CF99A
:1023D000002010BD18040020D4470000B8440000BD
:1023E00002480349401AC00870470000D447000063
:1023F0006447000013B56846FFF77AFA08B1002079
:102400001CBD0248009950F831001CBD6447000013
:1024100070B508480125D0F81044057007E0E06861
:1024200045712168204649688847E0680468002CA7
:10243000F5D170BD180400202DE9FF4781460C9DA1
:1024400000200C462F7B28739846164629461846CE
:1024500001F084F8072E42D2DFE806F004090F16D7
:102460001F2A360049462846FFF764FB37E04946F5
:1024700028462268FFF75EFB31E0D4E90023494695
:102480002846FFF757FB2AE0A0680090D4E9002314
:1024900049462846FFF74EFB21E0D4E90201CDE989
:1024A0000001D4E9002349462846FFF743FB16E024
:1024B00004F1080007C88DE80700D4E90023494665
:1024C0002846FFF737FB0AE004F108000FC88DE843
:1024D0000F00D4E9002349462846FFF72BFB0022D2
:1024E0002946404601F01CF82F73BDE8FF872DE90F
:1024F000F041058A80462D1F4819C01CB0FBF5F03D
:10250000C6B24046FFF72EFA041E19D000202071F3
:1025100001206071E58000272546761EC4F8008002
:102520000BE04046FFF71EFA60B16179491C61710A
:10253000286005467F1CC0F80080B742F1D32046D2
:10254000BDE8F081204600F002F80020F8E72DE910
:10255000F041457901466B1E002201E00968521CDA
:102560009A42FBD30F680146002605E038460C6806
:10257000FFF717FA2146761CAE42F7D3BDE8F0818B
:102580000121001DFFF7D2B9FFF720BA10B50446AC
:102590000121001DFFF7E0F910F0FF0F04D12046E4
:1025A000BDE81040FFF7D3BF10BD1CB5019201225A
:1025B000009201AAFFF75DF91CBD1CB50192002233
:1025C000009201AAFFF755F91CBD0000064910B59D
:1025D00000204870091D0860BFF35F8F034904485D
:1025E00000F054F8002010BD3400002070440000BA
:1025F0005402002010B50020FEF7FCFCF1EE100A9A
:1026000020F09F00E1EE100ABFF35F8F05494020E4
:10261000C1F880020020FEF7EFFC20BF40BF20BFC2
:1026200010BD000004E000E0826800219160826833
:102630001161826851618268D160826851608068EE
:1026400001607047024A1060101D01607047000071
:102650002C760040030103481844C0F81425C0F844
:10266000101570470070004002494058002800D003
:102670000120704700700040034908B5084400225B
:1026800002600068009008BD0070004001600968A9
:102690004160AFF3008010B5D0E900215368994242
:1026A00001D1002104E0D1E90034A34202D019464F
:1026B000816010BD08314160F0E74058002800D02B
:1026C0000120704708B5002242504058009008BDD4
:1026D0004058002800D00120704708B50022425021
:1026E0004058009008BD4058002800D00120704795
:1026F00008B5002242504058009008BDD0F80403AD
:10270000084000D0012070474058002800D0012028
:10271000704708B5002242504058009008BD0000A4
:10272000002802D001498001084770472144000079
:10273000002802D00149800108477047D1440000B9
:102740002DE9F0410E46054600F070FE00282846AF
:1027500019D0FEF789FD083800F0DAFE032802D010
:1027600001280ED007E04FF0A040D0F81005E84057
:1027700010F0010F05D003212846BDE8F041FFF716
:1027800068BB0221F8E700F05DFE002822D0284651
:10279000FEF76AFD04464FF4807000EB84000E4F94
:1027A00081B207EB8400D0F8102542F00102C0F896
:1027B00010250846FFF7AAFB002E0BD02846FEF78F
:1027C00053FD064951F82000002803D00120A04005
:1027D000C7F80403BDE8F08100600040F00000206D
:1027E0002DE9FC41DFF8B880044608EB040000271F
:1027F00090F930001346C0170E46401C01D0082740
:102800004AE0B0781946C0F340022046FEF708FDC2
:102810000546401C3FD0B078410717D4C0070AD006
:102820004FF0A04000EB8400D0F8001721F0020127
:10283000C0F8001707E000217378204600910A468F
:102840000191FFF77DFA204600F0E2FDB0788007A5
:1028500018D51448317800EB8500D0F81025124BBC
:102860001A40C0F810254FF4F8524FF4403302EAF2
:10287000042203EA01410A43D0F810150A43C0F8C4
:10288000102509E008EB0500327810F8481F41EAEE
:102890008211017000E004273846BDE8FC81000089
:1028A000F000002000600040FFE0FCFF70B5194D13
:1028B00095F8580008B1082070BD0024661E204617
:1028C000FFF706FB10B1281980F83060641CE4B2F1
:1028D000202CF4D300242046FEF794FC641CE4B2C0
:1028E0000C2CF8D300200D4968650B4CC02081F8F2
:1028F000000401264020891FC1F800014FF4BE707A
:10290000FFF704FBA004C4F8040385F85860002016
:1029100070BD0000F00000200060004006E000E014
:102920000121B1EB507F01D1012070470020704799
:102930000121B1EB507F01D1012070470020704789
:102940002DE9F0470427144E814600244FF001087A
:102950000020FEF74FFB08FA04F5354203D020466D
:10296000FEF702FF58B10020FEF746FB27B104F145
:102970000104AE43E4B2EBD13846BDE8F087074925
:1029800008FA04F000274A681043486089F80040BC
:102990003846FEF731FBEFE7FFFF0F000400002091
:1029A0002DE9F04114460D00074612D08CB10026E7
:1029B000FEF7E6FE78B13846FEF7D6FE68B1084865
:1029C00000EBC700C0F81055C0F814453046BDE80C
:1029D000F0810E20FBE70726F8E70826F6E700005F
:1029E00000F0014070B5044601260025A640FEF720
:1029F000C7FE18B12046FEF7B7FE18B102480660C0
:102A0000284670BD0825FBE704F5014070B50D466A
:102A100000F026FE04000FD00020FEF7EBFA20792C
:102A200020B10020FEF7E8FA112070BD01202560DA
:102A300020710020FEF7E0FA002070BD2DE9F04182
:102A4000254C064612200D46C4F808032348017C95
:102A5000022918D0027C01464FF4807891F82E109C
:102A6000012A12D00222C4F8042301270774466009
:102A700005810022C26021B3458390F82D103046B5
:102A8000FFF7E0FD25E0122002E0C2682AB1022033
:102A9000C4F804031120BDE8F081C660058361B964
:102AA00047463846FFF7E0FD0028FAD03846FFF7E2
:102AB000E3FD29463046FFF7C5FD0220C4F80403B4
:102AC00007E029463046FFF7BDFD4046FFF7D4FD3D
:102AD00027600020DFE700000070004000020020B7
:102AE00070B50C4626490A7C0AB1112070BD2279C6
:102AF000244D0AB1012A01D100222A6001EB4002D3
:102B0000137F1BB911F82D3F5B1C0B70E179117716
:102B1000217A517721786278302301F0030103EAAA
:102B200002121143A2784FF4E06303EA0222114338
:102B3000E2784FF4805303EA0232114322794FF4D2
:102B4000E02303EA0242114362794FF4801303EA5F
:102B500002521143A2791B0103EA02620A4B11439C
:102B600003EB0012C2F81815227AE179FFF772FD23
:102B7000207908B1012801D101202860002070BD12
:102B80000002002000750040007000402DE9F04177
:102B90001F4C054694F82C0010B10820BDE8F081C8
:102BA00044F8101B1B4928780860091D68780860E4
:102BB000E878A07701272777002020706077606091
:102BC000154EE0776FF00040C6F808034FF48270AE
:102BD000FFF752FDB015FFF74FFD4FF48A70FFF776
:102BE0004BFDA8780D49400181F800048020C91FE1
:102BF000C1F800010220C6F80403A07F10B1012033
:102C0000C6F804030348F03807600020C6E7000058
:102C100000020020F07500400070004007E000E076
:102C2000044890F82E0008B1002000E0042002497A
:102C30000844704700020020007000402DE9F04178
:102C400006460D464FF4803400681746AC404BB141
:102C50004FF4A07101EB8501FFF734FD3068C0F837
:102C6000044301E0C0F80843306800EB8500C0F879
:102C70004075BDE8F0810000016801220A6000791A
:102C8000034A00EB400002EB800002210172704712
:102C90004C010020F0B40468049E40F20115D4F801
:102CA00000728D40AF43C4F800720468D4F800523B
:102CB0001D43C4F800523346F0BCFFF7BFBF00000D
:102CC0002DE9F04104460E4600792C4900EB400006
:102CD00001EB8007387A10B10820BDE8F0813A6036
:102CE000706800254FF4A078786006E008EB850155
:102CF0002068FFF7E7FC6D1CEDB26079A842F5D8BB
:102D00002068F17840F3073000284FEA411104DBD6
:102D100000F1E02080F8001405E000F00F0000F161
:102D2000E02080F8141D2068012140F307300028BE
:102D300009DB00F01F0201FA02F24009800000F1F5
:102D4000E020C0F8002120687278D0F8043562F3E2
:102D50000103C0F804352068B278D0F8083562F372
:102D60000103C0F8083520683278D0F8103562F3D6
:102D70000303C0F8103539720020AEE74C01002083
:102D80000179006801EB810202EBC101044A02EB08
:102D900081010622C0F80025022081F82D0070472D
:102DA0007C0100202DE9FC410646007917460D46BE
:102DB00000EB8001324A01EBC00102EB810498462E
:102DC00094F82D1011B10820BDE8FC812D4951F86F
:102DD00020103068FFF71AFE08B11120F4E7C4E9AB
:102DE00000780027A76084F8307084F82F70687B23
:102DF00084F832004FF00608CDE9008703233A46F5
:102E000039462868FEF7AEFFCDE90087002203238C
:102E100011466868FEF7A6FFD5E900123068C0F8D1
:102E20000815C0F80C25A968C0F8241520680122EF
:102E300008B3306840F30731287B00294FEA40107F
:102E400004DB01F1E02181F8000405E001F00F014D
:102E500001F1E02181F8140D306840F307300028BB
:102E600009DB00F01F0102FA01F14009800000F1C6
:102E7000E020C0F8001184F82D200020A4E7000015
:102E80007C01002028440000F0B585B015460E46B0
:102E900007461C46142207496846FDF73EFB8DF89D
:102EA00001600022694638460395019400F020F83D
:102EB00005B0F0BD2C4400002DE9F04186B00E466F
:102EC00080461C461546142168460C9FFDF757FBAB
:102ED0008DF80160039501940FB1202200E00022DB
:102EE0006946404600F004F806B0BDE8F0810000F5
:102EF00030B40379006803EB830404EBC303054C8F
:102F000004EB830413460A460146204630BC00F019
:102F10005BBE00007C0100200149024801F03EB880
:102F2000D4010020002000402DE9F0410546007941
:102F300016460F4600EB40012D4A01EBC00102EBA3
:102F4000810494F82A1011B10820BDE8F0812949C4
:102F500051F820102868FFF759FD08B11120F4E757
:102F600039462846FEF7A0F86660386920603000D0
:102F70004FF001062FD03F7F4FF48E712868FFF786
:102F8000B7FB4FF4A2712868FFF7B2FB28681A4913
:102F9000C0F8041328684FEA471140F307300028AF
:102FA00004DB00F1E02080F8001405E000F00F00E1
:102FB00000F1E02080F8141D286840F30730002855
:102FC00009DB00F01F0106FA01F14009800000F161
:102FD000E020C0F8001128680421C0F80015002086
:102FE000A061E06184F8290044F8140FA675ACE7ED
:102FF000D401002044440000800002002DE9F05F6D
:10300000054600794FF4017600EB400303EBC00066
:10301000344B03EB80040020636813B12B68C3F8C2
:103020000863A3694FF000096BB1E06938B16068CB
:1030300010B12868C0F804631120BDE8F09FE26178
:103040000120216105E0C4F82490A261E160C4F888
:103050001C9094F82910014302D1284600F05BFB34
:1030600060680028286803D0C0F804630020E4E703
:103070004FF4A2763146FFF73BFBB2464FF4927B0A
:1030800059462868FFF72FFB06464FF484712868DD
:10309000FFF729FB804651462868FFF724FB0746C7
:1030A00048EA07003043EBD056EA070007D1214633
:1030B000286800F001FBA169606A8142E0D8C4F889
:1030C00018900EB10320B8E70FB10F20B5E794F8C0
:1030D000291001200029296801D00860C6E748604E
:1030E000C4E70000D40100202DE9F05F0546007917
:1030F0000B4600EB400101EBC000244901EB8004CA
:10310000284600F045F810B11120BDE8F09F62613B
:103110004FF00009C4F82090A36084F828904FF481
:103120008E784E4641462868FFF7E2FA28684FF04D
:10313000010AC0F808A02146286800F091FE6068E6
:1031400008BBD5F800B067690FE000BF94F828000D
:1031500008B10F2615E041465846FFF7C4FA00288B
:10316000F4D02146584600F07BFE206AB842F2D3E4
:10317000574641462868FFF7B6FA0028F9D0286874
:10318000C760C4F814903046BFE70000D4010020A7
:10319000007900EB400101EBC000044901EB800025
:1031A0004069002800D0012070470000D4010020B1
:1031B0000149024800F0A0BFB001002000200040FB
:1031C0002DE9F0410546164600790F46154A00EBF9
:1031D000C00102EB810494F8201011B10820BDE871
:1031E000F081114951F820102868FFF70FFC08B151
:1031F0001120F4E739462846FDF712FF666038696A
:1032000020601EB1397F2846FEF726FA286808217B
:10321000C0F800150020A061E0616061012184F820
:103220002010DCE7B0010020404400002DE9F05FF1
:10323000044600790E4600EBC001DFF8F0A0174607
:103240000AEB81053046FFF773FBB0B168684FF0B9
:1032500000084FF4047910B12168C1F80893A869F7
:103260004FF0000B80B1E86948B1686810B1206880
:10327000C0F804931120BDE8F09F1020FBE7EF6138
:103280004FF001082E6102E0EE60C5E9067B0025E3
:103290004FF488712068FFF73CFA4FF4A271206860
:1032A000FFF737FA2068C0F83465C0F83875206831
:1032B000B8F1000F12D0D0F8001241F02001C0F890
:1032C00000122079D04600EBC0010AEB8100406873
:1032D00038B12068C0F804932846CCE7012101608A
:1032E000EFE74FF4887A4FF4A27951462068FFF750
:1032F0000BFA074649462068FFF706FA06464FF4E0
:1033000092712068FFF700FA014647EA0600084379
:10331000EBD0227902EBC20308EB8302C2F818B0AB
:1033200001B10325002ED7D00F25D5E7B00100202D
:103330002DE9F04704460E460079274900EBC0000E
:1033400001EB800517463046FFF7F2FA30B1204610
:1033500000F044F820B11120BDE8F0871020FBE711
:103360006F61AE604FF490774FF0000839462068E7
:10337000FFF7CFF94FF4AC7631462068FFF7C9F973
:103380002068AA686969C0F84425C0F84815206813
:103390004FF00109C0F808906868D0B9BA465146A4
:1033A0002068FFF7B1F9074631462068FFF7ACF90E
:1033B0000743F4D010B14FF00F0808E02068C0F8C0
:1033C0000C9031462068FFF79FF90028F9D00020C3
:1033D00068614046C0E70000B0010020007905495F
:1033E00000EBC00001EB80004069002800D0012004
:1033F00070470000B00100200349086003480168DD
:103400000029FCD07047000004E5014000E40140C1
:1034100010B50549C20800F00703885C01249C40F0
:103420002043885410BD0000440100200449084492
:1034300090F93000082801DB012070470020704718
:10344000F00000200449084490F93000082801D217
:103450000120704700207047F00000202DE9F05F48
:103460002A4F06464FF0A04A4FF0010B00243819AE
:1034700090F95010491C3CD090F85000314620F093
:10348000C0052846FEF7BAFA20B3204600F040F8FF
:1034900081460AEB8500D0F80007C0F30148B8F177
:1034A000020F18D002212846FEF7D3FC0BFA05F1D3
:1034B000CAF820152846FDF7D7FE57F820204AB154
:1034C0004846B9F1030F11D0B8F1020F05D0B8F199
:1034D000030F07D00DE00321E5E74846B9F1010FDE
:1034E00004D006E04846B9F1020F02D10146284651
:1034F0009047641C042CBAD3324601210020FEF709
:10350000B9FC30680028B1D1BDE8F09FF000002080
:103510000249084490F8500080097047F0000020EC
:1035200010B50C46017A052908D0407A38B1084810
:1035300008A102682046FEF7FDFA00E01AB106A1D4
:103540002046FEF7F7FA2046BDE81040FEF7FFBA26
:10355000A0000020257300000D0A000038B5C388C4
:103560000D46044633B114A0009015A216A12846BA
:10357000FEF7E0FA217A05291CD0607A48B1A088CC
:10358000FEF776FD164951F8202016A12846FEF7D1
:10359000D1FAA0880021FEF72DFF03461049207ABA
:1035A000143951F8202001B02846BDE830400EA162
:1035B000FEF7C0BA38BD00001B5B306D0000000094
:1035C0001B5B313B33316D0025734C6F6773206497
:1035D000726F70706564202825642925730D0A00B8
:1035E000A0000020257300003C25733E2025733A7F
:1035F000200000003EB5002001900120024600900E
:1036000002AB01A9142000F085FE0949094A891A74
:10361000C908032202EB014420B1FDF765FC2046F6
:1036200005A101E0204609A1FEF760FE3EBD0000B5
:10363000CC47000064470000424D413430302069DF
:103640006E6974204661696C00000000424D41348F
:10365000303020696E69742053756363657373003D
:103660000349884201D10348704700207047000099
:10367000002000402800002010B50178002909D161
:1036800040680121FFF7DAF9002803D0BDE81040B7
:10369000FDF72ABC10BD000008B505A00623006890
:1036A0000090044A0121684600F028FE08BD000091
:1036B00004000000CA00002070B5054688690C4669
:1036C00000284FF4847128460AD0FFF711F8D5F886
:1036D0001805626AE1688854606A401C606270BDC7
:1036E000FFF706F8D5F8180570BD1FB501238DF852
:1036F0000030CDE90121D0E90012684690471FBD96
:103700001FB501238DF80030CDE90121D0E9001269
:10371000684690471FBD10B5044600684FF492718B
:10372000FEF7E6FF4FF484712068FEF7E1FF2068A2
:103730000121016010BD0000054810B50078FFF7B9
:1037400051F9002803D0BDE81040FDF7CDBB10BDF6
:10375000E40000203EB5FEF765F908B1FDF7C4FBB3
:103760001E491F4AD1E90301CDE9010103208DF86B
:1037700006001A4801A9001DFFF7A2FA08B1FDF7DB
:10378000B3FB164C241D2068D0F810050021C2B2EE
:103790004FF47A40FCF726FE0246002000900423F6
:1037A00002212046FFF776FA2046FFF765FA2468E3
:1037B00004F5A474FFF734FA05460A48FFF7C0F889
:1037C00008B1FDF791FB07482A4621460078FFF72C
:1037D000E7F8002801D0FDF787FB3EBD004500005B
:1037E00025130000E40000202DE9F0411400884674
:1037F00018D000250E4F032608EB050122460020B5
:10380000FDF79CF80544241A40B93878002809D0FF
:1038100008494FF47A408847761E05D00120387059
:10382000002CE9D1BDE8F08100203870FAE70000F3
:1038300064000020B144000008B519208DF8000094
:1038400002208DF801000146684600F039FD08BDF0
:1038500008B51A208DF8000057208DF801000221CC
:10386000684600F02DFD08BD08B521208DF8000048
:1038700080208DF801000221684600F021FD08BD7E
:1038800008B51F208DF8000080208DF8010002216E
:10389000684600F015FD08BD08B57E208DF80000D3
:1038A000B6208DF801000221684600F009FD08BD30
:1038B0002DE9F84F074622489146884605681E467E
:1038C000012269461846FDF733FCDFF878A060B3A3
:1038D000009800210446801C0AE000BF00EA0502AF
:1038E00059F821C00AEB8202401C491CC2F80CC0E6
:1038F000B142F3D34FEA1749FDF7E4FC611C2940BC
:103900000AEB810149EA00422C40CA600AEB8401BB
:10391000C86867F3C50066F3891068F39F2020F03C
:103920000300401C20F00400C8609AF8000001E089
:10393000FEF7C4FB0028FBD1FDF728FFBDE8F88F98
:1039400070000020180400202DE9F041044640F2E8
:103950000C602168890001F1A041C1F8000761688D
:10396000890001F1A041C1F800072068FEF7BFFA05
:103970006068FEF7BCFA216840F20D60890001F131
:10398000A041C1F800076168890001F1A041C1F8B8
:1039900000070420FEF7C4FE00274FF0A0460125D3
:1039A0002179D6F81005C84010F0010F02D0002F81
:1039B0001DD010E0217805FA01F0C6F80C050420AE
:1039C000FEF7AEFE2068FEF792FA0420FEF7A8FE8E
:1039D0007F1C092FE4DB20798540C6F80C550420B4
:1039E000FEF79EFE6068BDE8F041FEF780BABDE8D4
:1039F000F08100001FB50A4601788DF800100179AA
:103A00008DF8041041798DF80510017A8DF80610B3
:103A1000017B8DF807100169029140690390044809
:103A200050F82210083850F82220684690471FBDF1
:103A3000140000202DE9F04F0C464FF4927887B027
:103A400005464146FEF744FE4FF0020B01274FF4B6
:103A5000827640B141462846FEF73FFE3146284671
:103A6000FEF736FEE8B14FF482712846FEF730FECD
:103A7000010004F10C00DFF84C91EA4645F30736EB
:103A80004FF00008069048D04FF482712846FEF7A8
:103A900024FE94F82000400624D494F82E00C8B1E7
:103AA00020E0A068C5F80803C4F808B0A068C5F80D
:103AB00004034FF4B0712846FEF70AFE18B1D5F89A
:103AC0000002800501D42F626F6184F82E7007B068
:103AD000BDE8F08F2146284600F04AFC80F0010046
:103AE00084F82E0094F8200040073ED414220AF1F6
:103AF00004000699FCF711FD4FF4B0712846FEF75B
:103B0000ECFD4FF4AE712846FEF7E7FD94F8300067
:103B100008B394F82E00F0B927E04FF4A4712846BA
:103B2000FEF7DBFD207B68B14FF40070C5F80002A2
:103B3000801CA060C5F80893A068C5F80403AF60B6
:103B40002F62C4E714220AF104000699FCF7E5FC91
:103B500094F8300048B90020C5F80002C4F8088085
:103B6000C5F808933046FDF722F9D5F8C404C5F826
:103B7000C404810702D58DF8007011E0410702D519
:103B80008DF800B00CE0C00701D0032003E094F8EA
:103B90002E0018B104208DF8000001E08DF800809F
:103BA00094F8300008B984F82F8094F8200040077A
:103BB00003D594F82E00002889D0D4E90021684666
:103BC000904784E702029C012DE9F05F4FF0000965
:103BD000054680F82E901F4616460C464FF0080BFF
:103BE000CA46D068FEF79CFE00287DD09B48C4F8EA
:103BF000080395F82F0028B1A868C4F80403112021
:103C0000BDE8F09F780703D4F80601D4012000E056
:103C1000002085F82F001422314605F10C00FCF736
:103C20007CFCC7F3001085F830002F627078C4F870
:103C300088054FF482712046FEF74FFD4FF49271D4
:103C40002046FEF74AFD4FF4B0712046FEF745FDD1
:103C50004FF4A4712046FEF740FDF8074FF001082D
:103C600001D0404600E05046C4F85005B80701D5E1
:103C7000404600E05046C4F840053078A8B301281B
:103C800075D0022850D003281DD04FF007093807FF
:103C900004D43078032801D044F80B802868002829
:103CA0007FD0780701D5C5F808A0780603D4A868A6
:103CB00040F00200A860A86840F40070A860A868FE
:103CC000C4F80403C7E03069FEF72AFE60B14FF480
:103CD0008070C4F800027168F068C4F84405C4F844
:103CE00048154FF4A87101E031E032E02046FEF7BC
:103CF000F4FCC4F82080C4F8088000BF4FF4A87119
:103D00002046FEF7E5FC0028F8D04FF4A8712046C5
:103D1000FEF7E3FC3169B068C4F84415C4F84805FF
:103D20004FF48020A860B2E7F1687068C4F84415C9
:103D3000C4F848053069FEF7F3FD40B13169B06859
:103D4000C4F83415C4F838054FF4845012E010203C
:103D500056E7F1687068C4F84415C4F84805B80619
:103D600006D54FF48070C4F80002800205E009E037
:103D70004FF40070C4F800020220A860C4F820804C
:103D800085E70EE0F1687068C4F83415C4F83805AA
:103D90004FF48050C4F800020220A8604FF0000BDE
:103DA000ECE700264FF4A47B59462046FEF790FC32
:103DB00000B101264FF482712046FEF789FC28B13C
:103DC0004FF482712046FEF788FC01264FF4927171
:103DD0002046FEF77DFCE8B14FF492712046FEF7D5
:103DE0007CFC4FF4B0712046FEF772FCD4F8001250
:103DF00042420A40920504D4C4F82080C4F81480DA
:103E0000002638B1C80505D559462046FEF765FCA1
:103E10000026C9E7002EC7D0D4F8C404C4F8C404EF
:103E200085F82FA070B10321C20701D04FF40241E1
:103E3000820701D548F20121400701D548F202214D
:103E4000894608E0780606D42946204600F090FA14
:103E500008B94FF003094846D2E6000002029C016F
:103E600070B50C4605464FF48E71FEF741FC216A91
:103E7000A068415C206A401C2062C5F81C1570BD1A
:103E80001FB500228DF800200291816801914261E6
:103E9000D0E90012684690471FBD1FB500228DF87B
:103EA00000200291816801914261D0E900126846C8
:103EB00090471FBD0178022901D0012902D1406835
:103EC000FDF712B8704700007CB50178254DA1B30D
:103ED00001290BD002291DD18DF80010C068691C82
:103EE00001900122C81DFDF705FE30E0017A59B1AD
:103EF000406801781C48FDF71DF81B4C012650B1A5
:103F00008DF8006001900DE016490122491CC81D82
:103F1000FDF7F0FD7CBDA068E168814205D000207E
:103F20008DF80000696868468847A068E168081A4B
:103F3000A1888842E8D9AE707CBDFFE70A480949EC
:103F40001030FCF7DCFF30B103208DF80000696809
:103F500068468847F0E70349012201F10800FDF7B0
:103F6000D9FDE9E73C000020600200201FB50A46A9
:103F700001788DF8001041680191017A8DF80810E0
:103F8000C0680390044850F82210001F50F8222007
:103F9000684690471FBD0000240000202DE9FF4720
:103FA0000C4605464FF40071FEF7A8FB01274FF4BD
:103FB0000178002618B34FF4927949462846FEF757
:103FC00092FBE0B149462846FEF792FBC5F808830C
:103FD00094F8290000B96F6002208DF80000D5F830
:103FE0008004C5F880040390A0690290E068019005
:103FF000A661E661D4E900126846904728E00421F2
:104000002846FEF77BFB18B34FF484712846FEF771
:104010006AFBE8B121462846FFF74EFB616AA069BA
:10402000884215D1E06938B1E268616AA06120690F
:10403000E6616662E06008E094F8290000B96F600C
:10404000C5F80883A661E268616A2046FFF758FB5D
:104050004FF48E7841462846FEF745FB80B16069F3
:10406000216A814202D294F8280028B341462846AA
:10407000FEF73EFB606918B161692046FFF70DFF4E
:104080004FF4A27841462846FEF72DFB002818D0B1
:1040900041462846FEF72CFB94F8290000B12F601A
:1040A000A06900280DD0A661E268616A04B02046CC
:1040B000BDE8F047FFF724BB21462846FFF7D0FEB6
:1040C000DEE7BDE8FF8700001FB50A4601788DF8DE
:1040D000001041680191017A8DF80810C0680390C2
:1040E000044850F82210001F50F8222068469047DC
:1040F0001FBD0000240000202DE9FF410C464FF4B5
:10410000927705463946FEF7FFFA0026B8B13946E0
:104110002846FEF7FEFA02208DF80000D5F880044C
:10412000C5F880040390D5F83C050290E068019042
:10413000A661E661D4E900126846904723E04FF497
:10414000887739462846FEF7DFFAE0B13946284637
:10415000FEF7DFFAD5F83C15A069884213D1E06973
:1041600060B1E268D5F8000220F02000C5F8000236
:10417000E069A0612069E661E06001E0A661E268B3
:104180002046FFF7B2FA4FF4A27739462846FEF7E9
:10419000BBFA68B139462846FEF7BBFAA06938B1C8
:1041A000A661E661D5F83C152046E268FFF79DFA66
:1041B0004FF4907631462846FEF7A6FA60B13146B4
:1041C0002846FEF7A6FA0120E860606920B1D5F81C
:1041D0004C152046FFF754FE4FF4AC763146284686
:1041E000FEF792FA00280ED031462846FEF791FAE3
:1041F0006069002807D0D5F84C1504B02046BDE80A
:10420000F041FFF73DBEBDE8FF8100002DE9F05F02
:104210008346DDE90A4A994690460D46084601273D
:1042200003E000BFB0FBF8F07F1C4045FAD2B9456F
:1042300000D94F465FEACA7012D18CB15FEA8A702A
:1042400002D5B9F1000F01D0202607E0302605E0A5
:1042500031465846641EFCF7B1FF0CB1A742F7D3B4
:104260005FF00106B9F1010F02D9A9F1010903E0DC
:10427000B5FBF6F0404502D306FB08F6F2E7DFF89F
:104280003C9000BFB5FBF6F000FB165519F8001086
:104290005846FCF793FFB6FBF8F6002EF2D15FEA22
:1042A000CA7009D0002C07D0A74205D22021584659
:1042B000641EFCF783FFF5E7BDE8F09F484400006B
:1042C000CAB20146142000F001B8000038B50A4D0A
:1042D00000232B700123009313460A460146281D34
:1042E000FDF7CCFB041E01D0FCF7FEFD287800286A
:1042F000FCD0204638BD0000D000002008B5DBB25D
:104300000093C9B213460A460146142000F002F891
:1043100008BD00002DE9F843144D0027DDF820907A
:10432000984606462F70012013460A4600903146F3
:10433000281DFDF7A3FB041E01D0FCF7D5FD28784E
:104340000028FCD074B92F70084831460830424626
:104350004B46FEF799FD041E01D0FCF7C5FD2878F9
:104360000028FCD02046BDE8F8830000D0000020E3
:1043700010B50B7B0122E3B1012B1DD0022B0FD016
:10438000032B24D18B685B0304D5D0F84C350C6922
:10439000A34216D18B685B0319D4D0F84C3506E0E4
:1043A000D0F84C350C69A3420BD1D0F83C354969A3
:1043B00005E0D0F84C3501E0D0F83C3509698B4276
:1043C00005D00022C0F800250621C0F800151046CF
:1043D00010BD000010B500290AD00878002807D0C9
:1043E00005487844FCF7FEF8002801D0002010BDF5
:1043F0000248784410BD0000620200005A0200002A
:104400004FF04070E1EE100A70470000000000001D
:104410000338FDD870470000000000500000000085
:104420000338FDD870470000990900000100000022
:10443000000000000000000000000000000000007C
:10444000B1310000192F00003031323334353637A6
:104450003839414243444546000000000000000056
:10446000000000000000000000000000000000004C
:10447000584400007044000004000000FFFFFFFFEC
:10448000FFFFFFFFFFFFFFFFFFFFFFFF0000000038
:10449000000000000000D60106010000951F00008A
:1044A000931F00008D1F00000000000000000000AE
:1044B0000338FDD870470000800300207F00000013
:1044C00000040020000000000000000000000000C8
:1044D0000338FDD8704700001B0000001A000000E0
:1044E000000068060200000008000000060000004E
:1044F00000000000000000000000000000E0D70104
:104500000200060100A000400104000004000306B0
:104510000000000000000000020000030000000096
:104520000338FDD8704700000200020002000200BC
:1045300002000200020002007761726E696E67007D
:1045400064656275670000001B5B313B33306D00B2
:104550001B5B306D000000001B5B313B33316D0095
:104560001B5B313B33326D001B5B313B33336D00E2
:104570001B5B313B33346D001B5B313B33356D00CE
:104580001B5B313B33366D001B5B313B33376D00BA
:10459000696E666F000000006572726F7200000045
:1045A0004750494F544500005050490054494D452B
:1045B000520000005457494D00000000554152542C
:1045C0004500000055415254000000005052530075
:1045D00053414144430000005350494D0000000046
:1045E0007077725F6D676D74000000006170705FBE
:1045F000627574746F6E0000736F72746C6973749B
:10460000000000006170705F74696D6572000000E9
:104610007274745F6C6F675F6261636B656E640078
:1046200061707000E847000000000020F00000000A
:104630003C020000D8480000F0000020302C0000B0
:10464000580200001001000043000000F8FFFFFFC7
:104650000040404040404040404041414141414095
:10466000404040404040404040404040404040404A
:1046700040050202020202020202020202020202D9
:1046800002202020202020202020200202020202DE
:104690000202909090909090101010101010101036
:1046A0001010101010101010101010100202020242
:1046B0000202888888888888080808080808080886
:1046C0000808080808080808080808080202020282
:1046D000400000000000000000000000000000009A
:1046E00000000000000000000000000000000000CA
:1046F00000000000000000000000000000000000BA
:1047000000000000000000000000000000000000A9
:104710000000000000000000000000000000000099
:104720000000000000000000000000000000000089
:104730000000000000000000000000000000000079
:104740000000000000000000000000000000000069
:10475000000000009C440000000000001046000023
:1047600068000020A045000000000000A8450000EF
:1047700000000000AC45000000000000B44500004F
:1047800000000000BC45000000000000C44500001F
:1047900000000000CC45000000000000D0450000F3
:1047A00000000000D845000000000000E0450000C7
:1047B00000000000EC45000000000000F84500008B
:1047C0000000000004460000000000002046000039
:1047D000000003037C000020740000207C00002007
:1047E000C0020020180000000000000000000000CF
:1047F00000000000000000000000000000000000B9
:1048000000000000000000000000000000000000A8
:104810000000000000000000000000000000000098
:104820000000000000000000000000000000000088
:1048300000200040000000000020004000000000B8
:104840000000000000000000000000000000000068
:1048500000000000FF000000FF000000000000005A
:104860000000000000000000000000000000000048
:1048700000000000000000009845000038450000DE
:1048800090450000404500005045000048450000AC
:104890005845000060450000684500007045000074
:1048A00078450000804500008845000000000000B9
:1048B00000000000000000000000000000000000F8
:1048C0000030004000000000010000000000000077
:0848D000000000000090D0037D
:0400000500000201F4
:00000001FF
